:100000000C945C000C946E000C946E000C946E00CA
:100010000C946E000C946E000C946E000C946E00A8
:100020000C946E000C946E000C946E000C946E0098
:100030000C946E000C946E000C946E000C946E0088
:100040000C9434010C946E000C946E000C946E00B1
:100050000C946E000C946E000C946E000C946E0068
:100060000C946E000C946E00000000002400270029
:100070002A0000000000250028002B0004040404CE
:100080000404040402020202020203030303030342
:10009000010204081020408001020408102001021F
:1000A00004081020000000080002010000030407FB
:1000B000000000000000000011241FBECFEFD8E0B8
:1000C000DEBFCDBF21E0A0E0B1E001C01D92A931AB
:1000D000B207E1F70E947E010C9412030C94000019
:1000E0003FB7F8948091150190911601A0911701E6
:1000F000B091180126B5A89B05C02F3F19F00196B5
:10010000A11DB11D3FBFBA2FA92F982F8827BC0171
:10011000CD01620F711D811D911D42E0660F771F99
:10012000881F991F4A95D1F708958F929F92AF9299
:10013000BF92CF92DF92EF92FF926B017C010E94FF
:1001400070004B015C01C114D104E104F104B9F069
:100150000E947000681979098A099B09683E7340FA
:100160008105910580F321E0C21AD108E108F10868
:1001700088EE880E83E0981EA11CB11CE4CFFF908E
:10018000EF90DF90CF90BF90AF909F908F900895A9
:10019000CF93DF939927DC01A057BF4FFD017491E6
:1001A0009C0124583F4FF9014491442399F050E0B9
:1001B000440F551FFA01E859FF4FC591D491FA0138
:1001C000EE58FF4F459154914FB7F8945881752BD5
:1001D00078834FBF8C559F4FFC018491FD01A49102
:1001E000F90124912223D1F0882339F0833019F1C9
:1001F000C0F4813031F1823041F1E22FF0E0EE0FB6
:10020000FF1FEE58FF4FC591D4918FB7F894988196
:10021000611128C0A095A923A8838FBFDF91CF913A
:1002200008958730A9F08830C9F0843031F7809183
:1002300080008F7D03C0809180008F778093800045
:10024000DCCF84B58F7784BDD8CF84B58F7DFBCFCD
:100250008091B0008F778093B000CFCF8091B000B5
:100260008F7DF9CFA92BD8CF1F920F920FB60F9287
:1002700011242F933F938F939F93AF93BF938091BC
:10028000110190911201A0911301B09114013091CC
:10029000100123E0230F2D3758F50196A11DB11D44
:1002A000209310018093110190931201A0931301E8
:1002B000B09314018091150190911601A09117013E
:1002C000B09118010196A11DB11D80931501909365
:1002D0001601A0931701B0931801BF91AF919F91A0
:1002E0008F913F912F910F900FBE0F901F901895F7
:1002F00026E8230F0296A11DB11DD2CFCF93DF9325
:1003000000D000D000D0CDB7DEB7789484B582603D
:1003100084BD84B5816084BD85B5826085BD85B5A9
:10032000816085BD80916E00816080936E00109227
:1003300081008091810082608093810080918100A2
:100340008160809381008091800081608093800033
:100350008091B10084608093B1008091B000816091
:100360008093B00080917A00846080937A008091BD
:100370007A00826080937A0080917A008160809315
:100380007A0080917A00806880937A001092C10090
:1003900080E090E0A0EEB0E480930C0190930D011A
:1003A000A0930E01B0930F0180E090E0A0E0B1E4D3
:1003B0008093080190930901A0930A01B0930B0167
:1003C00080E090E0AAEFB3E48093040190930501EC
:1003D000A0930601B093070180E090E0A8ECB2E49E
:1003E0008093000190930101A0930201B093030157
:1003F00064EF71E080E090E00E94950070E060E0C2
:1004000087E090E00E94C80070E060E088E090E043
:100410000E94C80068EE73E080E090E00E949500C2
:1004200060910C0170910D0180910E0190910F016E
:100430000E94B3024B017E836D8361E070E0C401D2
:100440000E94C800609108017091090180910A0121
:1004500090910B010E94B30269837A838B839C8302
:1004600029803A8061E070E0C1010E94C80060917B
:1004700004017091050180910601909107010E948D
:10048000BA026B017C010E94950070E060E0C4013B
:100490000E94C80070E060E089819A810E94C800D3
:1004A000C701B6010E94950061E070E0C4010E949E
:1004B000C80060910001709101018091020190914A
:1004C00003010E94BA022B013C010E94950070E0DA
:1004D00060E0C4010E94C800C701B6010E949500F7
:1004E00061E070E089819A810E94C800C301B20175
:1004F0000E94950070E060E089819A810E94C800A6
:10050000C701B6010E94950004E010E061E070E0D0
:100510008D819E810E94C800C301B2010E94950096
:1005200070E060E08D819E810E94C80061E070E013
:10053000C1010E94C800C301B2010E94950070E091
:1005400060E0C1010E94C80001501109F9F6C7011D
:10055000B6010E94950080E090E0892B09F460CFFD
:100560000E9400005DCF0E94BA026894B1110C9401
:100570000C0308950E94F10288F09F5798F0B92F5C
:100580009927B751B0F0E1F0660F771F881F991FC8
:100590001AF0BA95C9F714C0B13091F00E940B035C
:1005A000B1E008950C940B03672F782F8827B85F6C
:1005B00039F0B93FCCF3869577956795B395D9F720
:1005C0003EF490958095709561957F4F8F4F9F4F2A
:1005D000089557FD9058440F551F59F05F3F71F033
:1005E0004795880F97FB991F61F09F3F79F087959A
:1005F0000895121613061406551FF2CF4695F1DF23
:1006000008C0161617061806991FF1CF86957105B2
:10061000610508940895E894BB2766277727CB01E6
:0806200097F90895F894FFCF4B
:00000001FF
