:100000000C9463000C948B000C948B000C94DC0318
:100010000C94DC030C94DC030C948B000C948B008C
:100020000C948B000C948B000C948B000C948B0024
:100030000C948B000C948B000C948B000C948B0014
:100040000C943A030C948B000C94AA030C94840334
:100050000C948B000C948B000C948B000C948B00F4
:100060000C948B000C948B000000000024002700EF
:100070002A0000000008000201000003040700003D
:1000800000000000000000000000230026002900FE
:1000900000000000250028002B00040404040404D0
:1000A0000404020202020202030303030303010227
:1000B00004081020408001020408102001020408F6
:1000C000102054046B0611241FBECFEFD8E0DEBF12
:1000D000CDBF11E0A0E0B1E0E4E3FDE002C0059097
:1000E0000D92A635B107D9F722E0A6E5B1E001C02F
:1000F0001D92AF35B207E1F710E0C2E6D0E004C0D0
:100100002197FE010E948706C136D107C9F70E94D8
:10011000FD040C948D060C94000090E0FC01EE5858
:10012000FF4F2491FC01E255FF4F3491FC01E6564C
:10013000FF4FE491EE23C9F0222339F0233001F17F
:10014000A8F4213019F1223029F1F0E0EE0FFF1F61
:10015000E057FF4FA591B4918FB7F894EC916111DE
:1001600026C030953E233C938FBF08952730A9F0D9
:100170002830C9F0243049F7809180008F7D03C07A
:10018000809180008F7780938000DFCF84B58F7758
:1001900084BDDBCF84B58F7DFBCF8091B0008F779E
:1001A0008093B000D2CF8091B0008F7DF9CF3E2BED
:1001B000DACFCF93DF9390E0FC01E255FF4F24911B
:1001C00086569F4FFC0184918823D1F090E0880FE0
:1001D000991FFC01E859FF4FA591B491FC01E0572C
:1001E000FF4FC591D49161110EC09FB7F8948C91C7
:1001F000E22FE0958E238C932881E223E8839FBF32
:10020000DF91CF9108958FB7F894EC91E22BEC93A6
:100210008FBFF6CF3FB7F89480919F019091A001D6
:10022000A091A101B091A20126B5A89B05C02F3FC6
:1002300019F00196A11DB11D3FBFBA2FA92F982F0C
:100240008827BC01CD01620F711D811D911D42E007
:10025000660F771F881F991F4A95D1F708958F92CF
:100260009F92AF92BF92CF92DF92EF92FF924B019B
:100270005C010E940A016B017C010E940A016C1959
:100280007D098E099F09683E734081059105A8F399
:1002900021E0821A9108A108B10888EEC80E83E017
:1002A000D81EE11CF11C81149104A104B10429F7AA
:1002B000FF90EF90DF90CF90BF90AF909F908F9086
:1002C0000895AF92BF92CF92DF92EF92FF920F9379
:1002D0001F93CF93DF936C017B018B01040F151FDC
:1002E000EB015E01AE18BF08C017D10759F0699144
:1002F000D601ED91FC910190F081E02DC6010995A8
:10030000892B79F7C501DF91CF911F910F91FF9054
:10031000EF90DF90CF90BF90AF900895FC01538D88
:10032000448D252F30E0842F90E0821B930B5417CF
:1003300010F0CF96089501970895FC01918D828D5C
:10034000981761F0A28DAE0FBF2FB11D5D968C91F5
:10035000928D9F5F9F73928F90E008958FEF9FEF34
:100360000895FC01918D828D981731F0828DE80FF0
:10037000F11D858D90E008958FEF9FEF0895FC01AA
:10038000918D228D892F90E0805C9F4F821B910977
:100390008F739927089583EA91E00E94BF0121E0BD
:1003A000892B09F420E0822F089580E090E0892BCA
:1003B00029F00E94CB0181110C9400000895FC01EA
:1003C000A48DA80FB92FB11DA35ABF4F2C91848DB6
:1003D00090E001968F739927848FA689B7892C9313
:1003E000A089B1898C91837080648C93938D848D66
:1003F000981306C00288F389E02D80818F7D808369
:100400000895EF92FF920F931F93CF93DF93EC0128
:1004100081E0888F9B8D8C8D98131AC0E889F989AB
:10042000808185FF15C09FB7F894EE89FF896083AE
:10043000E889F98980818370806480839FBF81E02F
:1004400090E0DF91CF911F910F91FF90EF90089571
:10045000F62E0B8D10E00F5F1F4F0F731127E02E4C
:100460008C8D8E110CC00FB607FCFACFE889F98984
:10047000808185FFF5CFCE010E94DF01F1CFEB8DAA
:10048000EC0FFD2FF11DE35AFF4FF0829FB7F89458
:100490000B8FEA89FB8980818062CFCFCF93DF9376
:1004A000EC01888D8823B9F0AA89BB89E889F9898C
:1004B0008C9185FD03C0808186FD0DC00FB607FCC1
:1004C000F7CF8C9185FFF2CF808185FFEDCFCE01F4
:1004D0000E94DF01E9CFDF91CF910895209198012B
:1004E000309199012817390771F490919601809104
:1004F0009701981741F0E0919601F0E0EA5AFE4F1B
:10050000808190E008958FEF9FEF08950895EF9216
:10051000FF920F931F93CF93DF93DC015C96ED90D6
:10052000FC905D97E114F10479F481E090E013967A
:100530009C938E93129790E080E0DF91CF911F9172
:100540000F91FF90EF9008955196ED91FC91529785
:1005500050968C915097982F90950FB75E962C914E
:100560005E97122F127021FD6095F894208111235F
:1005700019F1282B2083E7012197F1F728E0462F76
:1005800050E0308160FF1AC0382B3083E70121979B
:10059000F1F7BA0175956795215089F7112381F01C
:1005A0008081892380830FBF5C968D919C910197F8
:1005B000F1F781E090E0C1CF2923DCCF3923E5CFEB
:1005C0009081892BEFCF20919801309199012817C4
:1005D000390761F4809197012091960190E0805C49
:1005E0009F4F821B91098F739927089590E080E0B7
:1005F0000895209198013091990128173907B9F48D
:100600009091960180919701981789F0E091960159
:10061000F0E0EA5AFE4F80812091960130E02F5F92
:100620003F4F2F7333272093960190E008958FEF6B
:100630009FEF089590E080E00895CF93DF93FC0151
:1006400001900020E9F73197AF01481B590BBC011D
:1006500083EA91E00E946101EC0142E050E064E233
:1006600071E083EA91E00E9461018C0F9D1FDF9190
:10067000CF9108951F920F920FB60F9211242F93CE
:100680003F938F939F93AF93BF9380919B019091E2
:100690009C01A0919D01B0919E0130919A0123E0AF
:1006A000230F2D3758F50196A11DB11D20939A01F6
:1006B00080939B0190939C01A0939D01B0939E0118
:1006C00080919F019091A001A091A101B091A20100
:1006D0000196A11DB11D80939F019093A001A0934D
:1006E000A101B093A201BF91AF919F918F913F91D2
:1006F0002F910F900FBE0F901F90189526E8230F93
:100700000296A11DB11DD2CF1F920F920FB60F926C
:1007100011242F933F934F935F936F937F938F9306
:100720009F93AF93BF93EF93FF9383EA91E00E946F
:10073000DF01FF91EF91BF91AF919F918F917F91D9
:100740006F915F914F913F912F910F900FBE0F903E
:100750001F9018951F920F920FB60F9211242F938E
:100760008F939F93EF93FF93E091B301F091B401C6
:100770008081E091B901F091BA0182FD1BC09081A6
:100780008091BC018F5F8F732091BD01821741F072
:10079000E091BC01F0E0ED55FE4F958F8093BC01D8
:1007A000FF91EF919F918F912F910F900FBE0F901E
:1007B0001F9018958081F4CF1F920F920FB60F9261
:1007C00011242F933F934F935F936F937F938F9356
:1007D0009F93AF93BF93EF93FF93E0919801F091B4
:1007E0009901309749F0A685B7858585968D91FF4B
:1007F00014C09C918923A1F4FF91EF91BF91AF9117
:100800009F918F917F916F915F914F913F912F9128
:100810000F900FBE0F901F9018959C91892361F740
:10082000A389B4899C918589809589238C93868935
:1008300097890197F1F7608D718DA685B7855585EC
:1008400038E020E0CB010197F1F7822F90E09595F9
:100850008795282F4C91452309F02068315091F756
:10086000868D81FD20958091970190E001968F7390
:10087000992730919601381799F0A0919701B0E02F
:10088000AA5ABE4F2C9380939701828D938D019726
:10089000F1F7A389B4898C919589892B8C93ACCF7E
:1008A000868D8160868FF1CF1092A6011092A501EE
:1008B00088EE93E0A0E0B0E08093A7019093A801B8
:1008C000A093A901B093AA0124E031E03093A401E0
:1008D0002093A30125EC30E03093B0012093AF01C9
:1008E00024EC30E03093B2012093B10120EC30E0F1
:1008F0003093B4012093B30121EC30E03093B60182
:100900002093B50122EC30E03093B8012093B70179
:1009100026EC30E03093BA012093B9011092BC016B
:100920001092BD011092BE011092BF0110924302BD
:10093000109242028093440290934502A093460293
:10094000B093470286E191E0909341028093400288
:1009500010925702109256021092590210925802A9
:1009600010925B0210925A0210925D0210925C0289
:1009700060915E026E7F6D7F60935E02669561702E
:1009800081E068270E948D0061E081E00E94D9002B
:10099000EFEAF0E0E491E0935002EBE9F0E0E4915B
:1009A000F0E0EE0FFF1FE057FF4F85919491909379
:1009B00052028093510260E080E00E94D900809151
:1009C0005E0281FD04C061E080E00E948D00109213
:1009D0004C02EEEAF0E0E491E0934D02EAE9F0E047
:1009E000E491F0E0EE0FFF1FEA57FF4F85919491DD
:1009F00090934F0280934E020895789484B582605C
:100A000084BD84B5816084BD85B5826085BD85B5B2
:100A1000816085BD80916E00816080936E00109230
:100A200081008091810082608093810080918100AB
:100A3000816080938100809180008160809380003C
:100A40008091B10084608093B1008091B00081609A
:100A50008093B00080917A00846080937A008091C6
:100A60007A00826080937A0080917A00816080931E
:100A70007A0080917A00806880937A001092C10099
:100A8000E091B301F091B40182E08083E091AF0185
:100A9000F091B0011082E091B101F091B2018FECC0
:100AA00080831092BB01E091B701F091B80186E01C
:100AB0008083E091B501F091B601808180618083EF
:100AC000E091B501F091B601808188608083E0916A
:100AD000B501F091B601808180688083E091B50115
:100AE000F091B60180818F7D808310925B0210921D
:100AF0005A02109259021092580210925702109204
:100B000056028DE991E090935D0280935C02909192
:100B10004C02963108F047C02DEB30E0309357027D
:100B2000209356022BE931E030935902209358026A
:100B30002CE231E030935B0220935A02209168004E
:100B400084E0983048F031E09E3008F430E081E0F5
:100B500001C0880F3A95EAF7822B809368002DE652
:100B600030E0983050F02BE630E09E3030F02CE64C
:100B700030E0963110F030E020E0309354022093C2
:100B80005302292F30E0983008F068C081E001C09E
:100B9000880F9A95EAF78093550280915C029091B4
:100BA0005D020197F1F780915A0290915B02892BC7
:100BB00049F1E0919801F091990182E0E034F80761
:100BC00009F1309739F0A389B4899C918589809582
:100BD00089238C9380915E028E7F80935E021092B7
:100BE00097011092960180E492E09093990180938E
:100BF0009801E0915302F091540280819091550246
:100C0000892B808361E088E00E94D90061E089E05F
:100C10000E94D90087E291E00E941D03C0E0D0E06D
:100C200068EE73E080E090E00E942F0180E492E0A3
:100C30000E94E3021816190644F483EA91E00E9428
:100C40009D018136C1F0823679F1209749F30E94E7
:100C5000CB01882329F30E940000E2CF9E3040F4AC
:100C60002850310981E001C0880F2A95EAF793CF17
:100C70002E503109F7CF61E088E00E948D0064EFCB
:100C800071E080E090E00E942F0160E088E00E9427
:100C90008D0064EF71E080E090E00E942F018AE314
:100CA00091E00E941D03D1CF61E089E00E948D0098
:100CB00064EF71E080E090E00E942F0160E089E045
:100CC0000E948D0064EF71E080E090E00E942F01AF
:100CD00088E491E0E6CF86E191E090934102809331
:100CE000400280919801909199018054924071F452
:100CF000E0915302F09154029081809155028095C9
:100D00008923808310929901109298010895EE0F23
:100D1000FF1F0590F491E02D099410E0C2E6D0E0A9
:100D200004C0FE010E9487062196C336D107C9F789
:040D3000F894FFCF65
:100D340000000000010261018E014E02BF019D010D
:100D4400B10100000000870261011A038602E30278
:100D5400F9026E020D0A0050726573696F6E6520A8
:100D6400756E61207465636C6100506172706164BA
:100D74006561204C65643100506172706164656125
:060D8400204C6564320002
:00000001FF
